{
  "_format": "hh-sol-artifact-1",
  "contractName": "Token",
  "sourceName": "contracts/Token.sol",
  "abi": [
    {
      "inputs": [],
      "stateMutability": "nonpayable",
      "type": "constructor"
    },
    {
      "inputs": [
        {
          "internalType": "address",
          "name": "",
          "type": "address"
        }
      ],
      "name": "balanceOf",
      "outputs": [
        {
          "internalType": "uint256",
          "name": "",
          "type": "uint256"
        }
      ],
      "stateMutability": "view",
      "type": "function"
    },
    {
      "inputs": [],
      "name": "mint",
      "outputs": [],
      "stateMutability": "nonpayable",
      "type": "function"
    },
    {
      "inputs": [],
      "name": "name",
      "outputs": [
        {
          "internalType": "string",
          "name": "",
          "type": "string"
        }
      ],
      "stateMutability": "view",
      "type": "function"
    },
    {
      "inputs": [],
      "name": "owner",
      "outputs": [
        {
          "internalType": "address",
          "name": "",
          "type": "address"
        }
      ],
      "stateMutability": "view",
      "type": "function"
    },
    {
      "inputs": [],
      "name": "symbol",
      "outputs": [
        {
          "internalType": "string",
          "name": "",
          "type": "string"
        }
      ],
      "stateMutability": "view",
      "type": "function"
    },
    {
      "inputs": [],
      "name": "totalSupply",
      "outputs": [
        {
          "internalType": "uint256",
          "name": "",
          "type": "uint256"
        }
      ],
      "stateMutability": "view",
      "type": "function"
    },
    {
      "inputs": [
        {
          "internalType": "address",
          "name": "_to",
          "type": "address"
        },
        {
          "internalType": "uint256",
          "name": "_amount",
          "type": "uint256"
        }
      ],
      "name": "transfer",
      "outputs": [],
      "stateMutability": "nonpayable",
      "type": "function"
    }
  ],
  "bytecode": "0x60806040526040518060400160405280600881526020017f4d7920546f6b656e000000000000000000000000000000000000000000000000815250600090816200004a9190620003ae565b506040518060400160405280600381526020017f444d54000000000000000000000000000000000000000000000000000000000081525060019081620000919190620003ae565b50620f4240600255348015620000a657600080fd5b5033600360006101000a81548173ffffffffffffffffffffffffffffffffffffffff021916908373ffffffffffffffffffffffffffffffffffffffff160217905550600254600460003373ffffffffffffffffffffffffffffffffffffffff1673ffffffffffffffffffffffffffffffffffffffff1681526020019081526020016000208190555062000495565b600081519050919050565b7f4e487b7100000000000000000000000000000000000000000000000000000000600052604160045260246000fd5b7f4e487b7100000000000000000000000000000000000000000000000000000000600052602260045260246000fd5b60006002820490506001821680620001b657607f821691505b602082108103620001cc57620001cb6200016e565b5b50919050565b60008190508160005260206000209050919050565b60006020601f8301049050919050565b600082821b905092915050565b600060088302620002367fffffffffffffffffffffffffffffffffffffffffffffffffffffffffffffffff82620001f7565b620002428683620001f7565b95508019841693508086168417925050509392505050565b6000819050919050565b6000819050919050565b60006200028f6200028962000283846200025a565b62000264565b6200025a565b9050919050565b6000819050919050565b620002ab836200026e565b620002c3620002ba8262000296565b84845462000204565b825550505050565b600090565b620002da620002cb565b620002e7818484620002a0565b505050565b5b818110156200030f5762000303600082620002d0565b600181019050620002ed565b5050565b601f8211156200035e576200032881620001d2565b6200033384620001e7565b8101602085101562000343578190505b6200035b6200035285620001e7565b830182620002ec565b50505b505050565b600082821c905092915050565b6000620003836000198460080262000363565b1980831691505092915050565b60006200039e838362000370565b9150826002028217905092915050565b620003b98262000134565b67ffffffffffffffff811115620003d557620003d46200013f565b5b620003e182546200019d565b620003ee82828562000313565b600060209050601f83116001811462000426576000841562000411578287015190505b6200041d858262000390565b8655506200048d565b601f1984166200043686620001d2565b60005b82811015620004605784890151825560018201915060208501945060208101905062000439565b868310156200048057848901516200047c601f89168262000370565b8355505b6001600288020188555050505b505050505050565b6108dc80620004a56000396000f3fe608060405234801561001057600080fd5b506004361061007d5760003560e01c806370a082311161005b57806370a08231146100c85780638da5cb5b146100f857806395d89b4114610116578063a9059cbb146101345761007d565b806306fdde03146100825780631249c58b146100a057806318160ddd146100aa575b600080fd5b61008a610150565b604051610097919061055b565b60405180910390f35b6100a86101de565b005b6100b26102c7565b6040516100bf9190610596565b60405180910390f35b6100e260048036038101906100dd9190610614565b6102cd565b6040516100ef9190610596565b60405180910390f35b6101006102e5565b60405161010d9190610650565b60405180910390f35b61011e61030b565b60405161012b919061055b565b60405180910390f35b61014e60048036038101906101499190610697565b610399565b005b6000805461015d90610706565b80601f016020809104026020016040519081016040528092919081815260200182805461018990610706565b80156101d65780601f106101ab576101008083540402835291602001916101d6565b820191906000526020600020905b8154815290600101906020018083116101b957829003601f168201915b505050505081565b600360009054906101000a900473ffffffffffffffffffffffffffffffffffffffff1673ffffffffffffffffffffffffffffffffffffffff163373ffffffffffffffffffffffffffffffffffffffff161461026e576040517f08c379a000000000000000000000000000000000000000000000000000000000815260040161026590610783565b60405180910390fd5b6001600460003373ffffffffffffffffffffffffffffffffffffffff1673ffffffffffffffffffffffffffffffffffffffff16815260200190815260200160002060008282546102be91906107d2565b92505081905550565b60025481565b60046020528060005260406000206000915090505481565b600360009054906101000a900473ffffffffffffffffffffffffffffffffffffffff1681565b6001805461031890610706565b80601f016020809104026020016040519081016040528092919081815260200182805461034490610706565b80156103915780601f1061036657610100808354040283529160200191610391565b820191906000526020600020905b81548152906001019060200180831161037457829003601f168201915b505050505081565b80600460003373ffffffffffffffffffffffffffffffffffffffff1673ffffffffffffffffffffffffffffffffffffffff16815260200190815260200160002054101561041b576040517f08c379a000000000000000000000000000000000000000000000000000000000815260040161041290610852565b60405180910390fd5b80600460003373ffffffffffffffffffffffffffffffffffffffff1673ffffffffffffffffffffffffffffffffffffffff168152602001908152602001600020600082825461046a9190610872565b9250508190555080600460008473ffffffffffffffffffffffffffffffffffffffff1673ffffffffffffffffffffffffffffffffffffffff16815260200190815260200160002060008282546104c091906107d2565b925050819055505050565b600081519050919050565b600082825260208201905092915050565b60005b838110156105055780820151818401526020810190506104ea565b60008484015250505050565b6000601f19601f8301169050919050565b600061052d826104cb565b61053781856104d6565b93506105478185602086016104e7565b61055081610511565b840191505092915050565b600060208201905081810360008301526105758184610522565b905092915050565b6000819050919050565b6105908161057d565b82525050565b60006020820190506105ab6000830184610587565b92915050565b600080fd5b600073ffffffffffffffffffffffffffffffffffffffff82169050919050565b60006105e1826105b6565b9050919050565b6105f1816105d6565b81146105fc57600080fd5b50565b60008135905061060e816105e8565b92915050565b60006020828403121561062a576106296105b1565b5b6000610638848285016105ff565b91505092915050565b61064a816105d6565b82525050565b60006020820190506106656000830184610641565b92915050565b6106748161057d565b811461067f57600080fd5b50565b6000813590506106918161066b565b92915050565b600080604083850312156106ae576106ad6105b1565b5b60006106bc858286016105ff565b92505060206106cd85828601610682565b9150509250929050565b7f4e487b7100000000000000000000000000000000000000000000000000000000600052602260045260246000fd5b6000600282049050600182168061071e57607f821691505b602082108103610731576107306106d7565b5b50919050565b7f6e6f74206f776e65720000000000000000000000000000000000000000000000600082015250565b600061076d6009836104d6565b915061077882610737565b602082019050919050565b6000602082019050818103600083015261079c81610760565b9050919050565b7f4e487b7100000000000000000000000000000000000000000000000000000000600052601160045260246000fd5b60006107dd8261057d565b91506107e88361057d565b9250828201905080821115610800576107ff6107a3565b5b92915050565b7f696e73756666696369656e742066756e64730000000000000000000000000000600082015250565b600061083c6012836104d6565b915061084782610806565b602082019050919050565b6000602082019050818103600083015261086b8161082f565b9050919050565b600061087d8261057d565b91506108888361057d565b92508282039050818111156108a05761089f6107a3565b5b9291505056fea2646970667358221220bccb0c1b52cee38dd52c2bbc1318682af26887286e5d241bdb4af606f96045dd64736f6c63430008110033",
  "linkReferences": {},
  "deployedLinkReferences": {}
}