{
  "contractName": "TestContract",
  "abi": [
    {
      "constant": true,
      "inputs": [],
      "name": "i",
      "outputs": [
        {
          "internalType": "uint256",
          "name": "",
          "type": "uint256"
        }
      ],
      "payable": false,
      "stateMutability": "view",
      "type": "function"
    },
    {
      "constant": false,
      "inputs": [
        {
          "internalType": "uint256",
          "name": "j",
          "type": "uint256"
        }
      ],
      "name": "callMe",
      "outputs": [],
      "payable": false,
      "stateMutability": "nonpayable",
      "type": "function"
    },
    {
      "constant": true,
      "inputs": [],
      "name": "getData",
      "outputs": [
        {
          "internalType": "bytes",
          "name": "",
          "type": "bytes"
        }
      ],
      "payable": false,
      "stateMutability": "view",
      "type": "function"
    }
  ],
  "bytecode": "0x608060405234801561001057600080fd5b506101fb806100206000396000f3fe608060405234801561001057600080fd5b50600436106100415760003560e01c80633bc5de3014610046578063e5aa3d58146100c9578063e73620c3146100e7575b600080fd5b61004e610115565b6040518080602001828103825283818151815260200191508051906020019080838360005b8381101561008e578082015181840152602081019050610073565b50505050905090810190601f1680156100bb5780820380516001836020036101000a031916815260200191505b509250505060405180910390f35b6100d16101ae565b6040518082815260200191505060405180910390f35b610113600480360360208110156100fd57600080fd5b81019080803590602001909291905050506101b4565b005b6060607b604051602401808260ff1681526020019150506040516020818303038152906040527fe73620c3000000000000000000000000000000000000000000000000000000007bffffffffffffffffffffffffffffffffffffffffffffffffffffffff19166020820180517bffffffffffffffffffffffffffffffffffffffffffffffffffffffff8381831617835250505050905090565b60005481565b8060008082825401925050819055505056fea265627a7a723158209d2d58243b1923f08039e55e55c32ba21e59b638397d200ed358b7edabed65bb64736f6c634300050b0032",
  "source": "pragma solidity ^0.5.11;\n\n/* \nMulti Sig Wallet\n    - A Multi Sig Wallet is a multi-signature wallet which has multiple owners.\n    - To spend from this wallet an owner will need to get permission/approval from other owners \n    Owners:\n    [\"0x5B38Da6a701c568545dCfcB03FcB875f56beddC4\", \"0xAb8483F64d9C6d1EcF9b849Ae677dD3315835cb2\", \"0x4B20993Bc481177ec7E8f571ceCaE8A9e22C02db\"]\n\n    Receiver: 0x78731D3Ca6b7E34aC0F824c42a7cC18A495cabaB,1000000000000000000\n\n */\ncontract MultiSigWallet {\n    // Emitted when ETH is deposited in the contract\n    event Deposit(address indexed sender, uint256 amount, uint256 balance);\n    event SubmitTransaction(\n        address indexed owner,\n        uint256 indexed txIndex,\n        address indexed to,\n        uint256 value,\n        bytes data\n    );\n    event ConfirmTransaction(address indexed owner, uint256 indexed txIndex);\n    event RevokeConfirmation(address indexed owner, uint256 indexed txIndex);\n    event ExecuteTransaction(address indexed owner, uint256 indexed txIndex);\n\n    address[] public owners; // store the owners\n    mapping(address => bool) public isOwner; // check for duplicate owners\n    uint256 public noOfConfirmationsRequired; // number of owner confirmations required to proceed with the transaction\n    struct Transaction {\n        address to; // recipient\n        uint256 value; // amount of ETH\n        bytes data; // Tx data that to be send to that contract\n        bool executed; // whether the transaction is executed or not\n        mapping(address => bool) isConfirmed; // when owner approved a transaction, they go inside the mapping\n        uint256 noOfConfirmations; // number of approvals\n    }\n    Transaction[] public transactions;\n\n    constructor(address[] memory _owners, uint256 _noOfconfirmationsRequired)\n        public\n    {\n        require(_owners.length > 0, \"owners required\");\n        require(\n            _noOfconfirmationsRequired > 0 &&\n                _noOfconfirmationsRequired <= _owners.length,\n            \"invalid number of required confirmations\"\n        );\n\n        for (uint256 i = 0; i < _owners.length; i++) {\n            address owner = _owners[i];\n\n            require(owner != address(0), \"invalid owner\");\n            require(!isOwner[owner], \"owner not unique\");\n\n            isOwner[owner] = true;\n            owners.push(owner);\n        }\n        noOfConfirmationsRequired = _noOfconfirmationsRequired;\n    }\n\n    function() external payable {\n        emit Deposit(msg.sender, msg.value, address(this).balance);\n    }\n\n    /* helper function to easily deposit in Remix */\n    function deposit() external payable {\n        emit Deposit(msg.sender, msg.value, address(this).balance);\n    }\n\n    modifier onlyOwner() {\n        require(isOwner[msg.sender], \"not owner\");\n        _;\n    }\n\n    modifier txExists(uint256 _txIndex) {\n        require(_txIndex < transactions.length, \"tx does not exist\");\n        _;\n    }\n    modifier notExecuted(uint256 _txIndex) {\n        require(!transactions[_txIndex].executed, \"tx already executed\");\n        _;\n    }\n    modifier notConfirmed(uint256 _txIndex) {\n        require(\n            !transactions[_txIndex].isConfirmed[msg.sender],\n            \"tx already confirmed\"\n        );\n        _;\n    }\n\n    /* \n        The owner will have to propose a transaction that has to be approved by other owners\n     */\n    function submitTransaction(\n        address _to,\n        uint256 _value,\n        bytes memory _data\n    ) public onlyOwner {\n        uint256 txIndex = transactions.length;\n\n        transactions.push(\n            Transaction({\n                to: _to,\n                value: _value,\n                data: _data,\n                executed: false,\n                noOfConfirmations: 0\n            })\n        );\n\n        emit SubmitTransaction(msg.sender, txIndex, _to, _value, _data);\n    }\n\n    /* \n        The owners can confirm the transaction by calling confirmTransaction\n     */\n    function confirmTransaction(uint256 _txIndex)\n        public\n        onlyOwner\n        txExists(_txIndex)\n        notExecuted(_txIndex)\n        notConfirmed(_txIndex)\n    {\n        Transaction storage transaction = transactions[_txIndex];\n\n        transaction.isConfirmed[msg.sender] = true;\n        transaction.noOfConfirmations += 1;\n\n        emit ConfirmTransaction(msg.sender, _txIndex);\n    }\n\n    /* \n        If enough owners approve the transaction, they can call executeTransaction \n     */\n    function executeTransaction(uint256 _txIndex)\n        public\n        onlyOwner\n        txExists(_txIndex)\n        notExecuted(_txIndex)\n    {\n        Transaction storage transaction = transactions[_txIndex];\n\n        require(\n            transaction.noOfConfirmations >= noOfConfirmationsRequired,\n            \"can't execute transaction\"\n        );\n\n        transaction.executed = true;\n        (bool success, ) = transaction.to.call.value(transaction.value)(\n            transaction.data\n        );\n        require(success, \"tx failed\");\n\n        emit ExecuteTransaction(msg.sender, _txIndex);\n    }\n\n    /* \n        if the owner decides to cancel the confirmation, he can call this function\n     */\n    function revokeConfirmation(uint256 _txIndex)\n        public\n        onlyOwner\n        txExists(_txIndex)\n        notExecuted(_txIndex)\n    {\n        Transaction storage transaction = transactions[_txIndex];\n\n        require(transaction.isConfirmed[msg.sender], \"tx not confirmed\");\n\n        transaction.isConfirmed[msg.sender] = false;\n        transaction.noOfConfirmations -= 1;\n\n        emit RevokeConfirmation(msg.sender, _txIndex);\n    }\n}\n\n/* \n    1. Deploy the contract\n    2. Execute getData method\n    3. pass the deployed address, 0, data from getData to submitTransaction method and execute\n */\ncontract TestContract {\n    uint256 public i;\n\n    /* \n        Multi sig wallet will call this function and update the state variable\n    */\n    function callMe(uint256 j) public {\n        i += j;\n    }\n\n    function getData() public view returns (bytes memory) {\n        return abi.encodeWithSignature(\"callMe(uint256)\", 123);\n    }\n}\n",
  "sourcePath": "/Users/debiprasadmishra/Documents/Blockchain/sol-multi-sig-wallet/contracts/MultiSigWallet.sol",
  "compiler": {
    "name": "solc",
    "version": "0.5.11+commit.c082d0b4.Emscripten.clang"
  },
  "schemaVersion": "3.4.9",
  "updatedAt": "2022-09-07T12:11:12.840Z",
  "devdoc": {
    "methods": {}
  },
  "userdoc": {
    "methods": {}
  }
}