{
  "_format": "hh-sol-artifact-1",
  "contractName": "NFT",
  "sourceName": "contracts/NFT.sol",
  "abi": [
    {
      "inputs": [],
      "stateMutability": "nonpayable",
      "type": "constructor"
    },
    {
      "anonymous": false,
      "inputs": [
        {
          "indexed": true,
          "internalType": "address",
          "name": "owner",
          "type": "address"
        },
        {
          "indexed": true,
          "internalType": "address",
          "name": "approved",
          "type": "address"
        },
        {
          "indexed": true,
          "internalType": "uint256",
          "name": "tokenId",
          "type": "uint256"
        }
      ],
      "name": "Approval",
      "type": "event"
    },
    {
      "anonymous": false,
      "inputs": [
        {
          "indexed": true,
          "internalType": "address",
          "name": "owner",
          "type": "address"
        },
        {
          "indexed": true,
          "internalType": "address",
          "name": "operator",
          "type": "address"
        },
        {
          "indexed": false,
          "internalType": "bool",
          "name": "approved",
          "type": "bool"
        }
      ],
      "name": "ApprovalForAll",
      "type": "event"
    },
    {
      "anonymous": false,
      "inputs": [
        {
          "indexed": true,
          "internalType": "address",
          "name": "from",
          "type": "address"
        },
        {
          "indexed": true,
          "internalType": "address",
          "name": "to",
          "type": "address"
        },
        {
          "indexed": true,
          "internalType": "uint256",
          "name": "tokenId",
          "type": "uint256"
        }
      ],
      "name": "Transfer",
      "type": "event"
    },
    {
      "inputs": [
        {
          "internalType": "address",
          "name": "to",
          "type": "address"
        },
        {
          "internalType": "uint256",
          "name": "tokenId",
          "type": "uint256"
        }
      ],
      "name": "approve",
      "outputs": [],
      "stateMutability": "nonpayable",
      "type": "function"
    },
    {
      "inputs": [
        {
          "internalType": "address",
          "name": "owner",
          "type": "address"
        }
      ],
      "name": "balanceOf",
      "outputs": [
        {
          "internalType": "uint256",
          "name": "",
          "type": "uint256"
        }
      ],
      "stateMutability": "view",
      "type": "function"
    },
    {
      "inputs": [
        {
          "internalType": "uint256",
          "name": "tokenId",
          "type": "uint256"
        }
      ],
      "name": "getApproved",
      "outputs": [
        {
          "internalType": "address",
          "name": "",
          "type": "address"
        }
      ],
      "stateMutability": "view",
      "type": "function"
    },
    {
      "inputs": [
        {
          "internalType": "address",
          "name": "owner",
          "type": "address"
        },
        {
          "internalType": "address",
          "name": "operator",
          "type": "address"
        }
      ],
      "name": "isApprovedForAll",
      "outputs": [
        {
          "internalType": "bool",
          "name": "",
          "type": "bool"
        }
      ],
      "stateMutability": "view",
      "type": "function"
    },
    {
      "inputs": [
        {
          "internalType": "string",
          "name": "_tokenURI",
          "type": "string"
        }
      ],
      "name": "mint",
      "outputs": [
        {
          "internalType": "uint256",
          "name": "",
          "type": "uint256"
        }
      ],
      "stateMutability": "nonpayable",
      "type": "function"
    },
    {
      "inputs": [],
      "name": "name",
      "outputs": [
        {
          "internalType": "string",
          "name": "",
          "type": "string"
        }
      ],
      "stateMutability": "view",
      "type": "function"
    },
    {
      "inputs": [
        {
          "internalType": "uint256",
          "name": "tokenId",
          "type": "uint256"
        }
      ],
      "name": "ownerOf",
      "outputs": [
        {
          "internalType": "address",
          "name": "",
          "type": "address"
        }
      ],
      "stateMutability": "view",
      "type": "function"
    },
    {
      "inputs": [
        {
          "internalType": "address",
          "name": "from",
          "type": "address"
        },
        {
          "internalType": "address",
          "name": "to",
          "type": "address"
        },
        {
          "internalType": "uint256",
          "name": "tokenId",
          "type": "uint256"
        }
      ],
      "name": "safeTransferFrom",
      "outputs": [],
      "stateMutability": "nonpayable",
      "type": "function"
    },
    {
      "inputs": [
        {
          "internalType": "address",
          "name": "from",
          "type": "address"
        },
        {
          "internalType": "address",
          "name": "to",
          "type": "address"
        },
        {
          "internalType": "uint256",
          "name": "tokenId",
          "type": "uint256"
        },
        {
          "internalType": "bytes",
          "name": "data",
          "type": "bytes"
        }
      ],
      "name": "safeTransferFrom",
      "outputs": [],
      "stateMutability": "nonpayable",
      "type": "function"
    },
    {
      "inputs": [
        {
          "internalType": "address",
          "name": "operator",
          "type": "address"
        },
        {
          "internalType": "bool",
          "name": "approved",
          "type": "bool"
        }
      ],
      "name": "setApprovalForAll",
      "outputs": [],
      "stateMutability": "nonpayable",
      "type": "function"
    },
    {
      "inputs": [
        {
          "internalType": "bytes4",
          "name": "interfaceId",
          "type": "bytes4"
        }
      ],
      "name": "supportsInterface",
      "outputs": [
        {
          "internalType": "bool",
          "name": "",
          "type": "bool"
        }
      ],
      "stateMutability": "view",
      "type": "function"
    },
    {
      "inputs": [],
      "name": "symbol",
      "outputs": [
        {
          "internalType": "string",
          "name": "",
          "type": "string"
        }
      ],
      "stateMutability": "view",
      "type": "function"
    },
    {
      "inputs": [],
      "name": "tokenCount",
      "outputs": [
        {
          "internalType": "uint256",
          "name": "",
          "type": "uint256"
        }
      ],
      "stateMutability": "view",
      "type": "function"
    },
    {
      "inputs": [
        {
          "internalType": "uint256",
          "name": "tokenId",
          "type": "uint256"
        }
      ],
      "name": "tokenURI",
      "outputs": [
        {
          "internalType": "string",
          "name": "",
          "type": "string"
        }
      ],
      "stateMutability": "view",
      "type": "function"
    },
    {
      "inputs": [
        {
          "internalType": "address",
          "name": "from",
          "type": "address"
        },
        {
          "internalType": "address",
          "name": "to",
          "type": "address"
        },
        {
          "internalType": "uint256",
          "name": "tokenId",
          "type": "uint256"
        }
      ],
      "name": "transferFrom",
      "outputs": [],
      "stateMutability": "nonpayable",
      "type": "function"
    }
  ],
  "bytecode": "0x608060405260006007553480156200001657600080fd5b506040518060400160405280600881526020017f44656269204e46540000000000000000000000000000000000000000000000008152506040518060400160405280600381526020017f44504d0000000000000000000000000000000000000000000000000000000000815250816000908162000094919062000329565b508060019081620000a6919062000329565b50505062000410565b600081519050919050565b7f4e487b7100000000000000000000000000000000000000000000000000000000600052604160045260246000fd5b7f4e487b7100000000000000000000000000000000000000000000000000000000600052602260045260246000fd5b600060028204905060018216806200013157607f821691505b602082108103620001475762000146620000e9565b5b50919050565b60008190508160005260206000209050919050565b60006020601f8301049050919050565b600082821b905092915050565b600060088302620001b17fffffffffffffffffffffffffffffffffffffffffffffffffffffffffffffffff8262000172565b620001bd868362000172565b95508019841693508086168417925050509392505050565b6000819050919050565b6000819050919050565b60006200020a62000204620001fe84620001d5565b620001df565b620001d5565b9050919050565b6000819050919050565b6200022683620001e9565b6200023e620002358262000211565b8484546200017f565b825550505050565b600090565b6200025562000246565b620002628184846200021b565b505050565b5b818110156200028a576200027e6000826200024b565b60018101905062000268565b5050565b601f821115620002d957620002a3816200014d565b620002ae8462000162565b81016020851015620002be578190505b620002d6620002cd8562000162565b83018262000267565b50505b505050565b600082821c905092915050565b6000620002fe60001984600802620002de565b1980831691505092915050565b6000620003198383620002eb565b9150826002028217905092915050565b6200033482620000af565b67ffffffffffffffff81111562000350576200034f620000ba565b5b6200035c825462000118565b620003698282856200028e565b600060209050601f831160018114620003a157600084156200038c578287015190505b6200039885826200030b565b86555062000408565b601f198416620003b1866200014d565b60005b82811015620003db57848901518255600182019150602085019450602081019050620003b4565b86831015620003fb5784890151620003f7601f891682620002eb565b8355505b6001600288020188555050505b505050505050565b612aae80620004206000396000f3fe608060405234801561001057600080fd5b50600436106100f55760003560e01c806370a0823111610097578063b88d4fde11610066578063b88d4fde14610284578063c87b56dd146102a0578063d85d3d27146102d0578063e985e9c514610300576100f5565b806370a08231146101fc57806395d89b411461022c5780639f181b5e1461024a578063a22cb46514610268576100f5565b8063095ea7b3116100d3578063095ea7b31461017857806323b872dd1461019457806342842e0e146101b05780636352211e146101cc576100f5565b806301ffc9a7146100fa57806306fdde031461012a578063081812fc14610148575b600080fd5b610114600480360381019061010f9190611840565b610330565b6040516101219190611888565b60405180910390f35b610132610412565b60405161013f9190611933565b60405180910390f35b610162600480360381019061015d919061198b565b6104a4565b60405161016f91906119f9565b60405180910390f35b610192600480360381019061018d9190611a40565b6104ea565b005b6101ae60048036038101906101a99190611a80565b610601565b005b6101ca60048036038101906101c59190611a80565b610661565b005b6101e660048036038101906101e1919061198b565b610681565b6040516101f391906119f9565b60405180910390f35b61021660048036038101906102119190611ad3565b610732565b6040516102239190611b0f565b60405180910390f35b6102346107e9565b6040516102419190611933565b60405180910390f35b61025261087b565b60405161025f9190611b0f565b60405180910390f35b610282600480360381019061027d9190611b56565b610881565b005b61029e60048036038101906102999190611ccb565b610897565b005b6102ba60048036038101906102b5919061198b565b6108f9565b6040516102c79190611933565b60405180910390f35b6102ea60048036038101906102e59190611def565b610a0b565b6040516102f79190611b0f565b60405180910390f35b61031a60048036038101906103159190611e38565b610a49565b6040516103279190611888565b60405180910390f35b60007f80ac58cd000000000000000000000000000000000000000000000000000000007bffffffffffffffffffffffffffffffffffffffffffffffffffffffff1916827bffffffffffffffffffffffffffffffffffffffffffffffffffffffff191614806103fb57507f5b5e139f000000000000000000000000000000000000000000000000000000007bffffffffffffffffffffffffffffffffffffffffffffffffffffffff1916827bffffffffffffffffffffffffffffffffffffffffffffffffffffffff1916145b8061040b575061040a82610add565b5b9050919050565b60606000805461042190611ea7565b80601f016020809104026020016040519081016040528092919081815260200182805461044d90611ea7565b801561049a5780601f1061046f5761010080835404028352916020019161049a565b820191906000526020600020905b81548152906001019060200180831161047d57829003601f168201915b5050505050905090565b60006104af82610b47565b6004600083815260200190815260200160002060009054906101000a900473ffffffffffffffffffffffffffffffffffffffff169050919050565b60006104f582610681565b90508073ffffffffffffffffffffffffffffffffffffffff168373ffffffffffffffffffffffffffffffffffffffff1603610565576040517f08c379a000000000000000000000000000000000000000000000000000000000815260040161055c90611f4a565b60405180910390fd5b8073ffffffffffffffffffffffffffffffffffffffff16610584610b92565b73ffffffffffffffffffffffffffffffffffffffff1614806105b357506105b2816105ad610b92565b610a49565b5b6105f2576040517f08c379a00000000000000000000000000000000000000000000000000000000081526004016105e990611fdc565b60405180910390fd5b6105fc8383610b9a565b505050565b61061261060c610b92565b82610c53565b610651576040517f08c379a00000000000000000000000000000000000000000000000000000000081526004016106489061206e565b60405180910390fd5b61065c838383610ce8565b505050565b61067c83838360405180602001604052806000815250610897565b505050565b6000806002600084815260200190815260200160002060009054906101000a900473ffffffffffffffffffffffffffffffffffffffff169050600073ffffffffffffffffffffffffffffffffffffffff168173ffffffffffffffffffffffffffffffffffffffff1603610729576040517f08c379a0000000000000000000000000000000000000000000000000000000008152600401610720906120da565b60405180910390fd5b80915050919050565b60008073ffffffffffffffffffffffffffffffffffffffff168273ffffffffffffffffffffffffffffffffffffffff16036107a2576040517f08c379a00000000000000000000000000000000000000000000000000000000081526004016107999061216c565b60405180910390fd5b600360008373ffffffffffffffffffffffffffffffffffffffff1673ffffffffffffffffffffffffffffffffffffffff168152602001908152602001600020549050919050565b6060600180546107f890611ea7565b80601f016020809104026020016040519081016040528092919081815260200182805461082490611ea7565b80156108715780601f1061084657610100808354040283529160200191610871565b820191906000526020600020905b81548152906001019060200180831161085457829003601f168201915b5050505050905090565b60075481565b61089361088c610b92565b8383610f4e565b5050565b6108a86108a2610b92565b83610c53565b6108e7576040517f08c379a00000000000000000000000000000000000000000000000000000000081526004016108de9061206e565b60405180910390fd5b6108f3848484846110ba565b50505050565b606061090482610b47565b600060066000848152602001908152602001600020805461092490611ea7565b80601f016020809104026020016040519081016040528092919081815260200182805461095090611ea7565b801561099d5780601f106109725761010080835404028352916020019161099d565b820191906000526020600020905b81548152906001019060200180831161098057829003601f168201915b5050505050905060006109ae611116565b905060008151036109c3578192505050610a06565b6000825111156109f85780826040516020016109e09291906121c8565b60405160208183030381529060405292505050610a06565b610a018461112d565b925050505b919050565b6000600160076000828254610a20919061221b565b92505081905550610a3333600754611195565b610a3f600754836111b3565b6007549050919050565b6000600560008473ffffffffffffffffffffffffffffffffffffffff1673ffffffffffffffffffffffffffffffffffffffff16815260200190815260200160002060008373ffffffffffffffffffffffffffffffffffffffff1673ffffffffffffffffffffffffffffffffffffffff16815260200190815260200160002060009054906101000a900460ff16905092915050565b60007f01ffc9a7000000000000000000000000000000000000000000000000000000007bffffffffffffffffffffffffffffffffffffffffffffffffffffffff1916827bffffffffffffffffffffffffffffffffffffffffffffffffffffffff1916149050919050565b610b5081611220565b610b8f576040517f08c379a0000000000000000000000000000000000000000000000000000000008152600401610b86906120da565b60405180910390fd5b50565b600033905090565b816004600083815260200190815260200160002060006101000a81548173ffffffffffffffffffffffffffffffffffffffff021916908373ffffffffffffffffffffffffffffffffffffffff160217905550808273ffffffffffffffffffffffffffffffffffffffff16610c0d83610681565b73ffffffffffffffffffffffffffffffffffffffff167f8c5be1e5ebec7d5bd14f71427d1e84f3dd0314c0f7b2291e5b200ac8c7c3b92560405160405180910390a45050565b600080610c5f83610681565b90508073ffffffffffffffffffffffffffffffffffffffff168473ffffffffffffffffffffffffffffffffffffffff161480610ca15750610ca08185610a49565b5b80610cdf57508373ffffffffffffffffffffffffffffffffffffffff16610cc7846104a4565b73ffffffffffffffffffffffffffffffffffffffff16145b91505092915050565b8273ffffffffffffffffffffffffffffffffffffffff16610d0882610681565b73ffffffffffffffffffffffffffffffffffffffff1614610d5e576040517f08c379a0000000000000000000000000000000000000000000000000000000008152600401610d55906122c1565b60405180910390fd5b600073ffffffffffffffffffffffffffffffffffffffff168273ffffffffffffffffffffffffffffffffffffffff1603610dcd576040517f08c379a0000000000000000000000000000000000000000000000000000000008152600401610dc490612353565b60405180910390fd5b610dd883838361128c565b610de3600082610b9a565b6001600360008573ffffffffffffffffffffffffffffffffffffffff1673ffffffffffffffffffffffffffffffffffffffff1681526020019081526020016000206000828254610e339190612373565b925050819055506001600360008473ffffffffffffffffffffffffffffffffffffffff1673ffffffffffffffffffffffffffffffffffffffff1681526020019081526020016000206000828254610e8a919061221b565b92505081905550816002600083815260200190815260200160002060006101000a81548173ffffffffffffffffffffffffffffffffffffffff021916908373ffffffffffffffffffffffffffffffffffffffff160217905550808273ffffffffffffffffffffffffffffffffffffffff168473ffffffffffffffffffffffffffffffffffffffff167fddf252ad1be2c89b69c2b068fc378daa952ba7f163c4a11628f55a4df523b3ef60405160405180910390a4610f49838383611291565b505050565b8173ffffffffffffffffffffffffffffffffffffffff168373ffffffffffffffffffffffffffffffffffffffff1603610fbc576040517f08c379a0000000000000000000000000000000000000000000000000000000008152600401610fb3906123f3565b60405180910390fd5b80600560008573ffffffffffffffffffffffffffffffffffffffff1673ffffffffffffffffffffffffffffffffffffffff16815260200190815260200160002060008473ffffffffffffffffffffffffffffffffffffffff1673ffffffffffffffffffffffffffffffffffffffff16815260200190815260200160002060006101000a81548160ff0219169083151502179055508173ffffffffffffffffffffffffffffffffffffffff168373ffffffffffffffffffffffffffffffffffffffff167f17307eab39ab6107e8899845ad3d59bd9653f200f220920489ca2b5937696c31836040516110ad9190611888565b60405180910390a3505050565b6110c5848484610ce8565b6110d184848484611296565b611110576040517f08c379a000000000000000000000000000000000000000000000000000000000815260040161110790612485565b60405180910390fd5b50505050565b606060405180602001604052806000815250905090565b606061113882610b47565b6000611142611116565b90506000815111611162576040518060200160405280600081525061118d565b8061116c8461141d565b60405160200161117d9291906121c8565b6040516020818303038152906040525b915050919050565b6111af82826040518060200160405280600081525061157d565b5050565b6111bc82611220565b6111fb576040517f08c379a00000000000000000000000000000000000000000000000000000000081526004016111f290612517565b60405180910390fd5b8060066000848152602001908152602001600020908161121b91906126e3565b505050565b60008073ffffffffffffffffffffffffffffffffffffffff166002600084815260200190815260200160002060009054906101000a900473ffffffffffffffffffffffffffffffffffffffff1673ffffffffffffffffffffffffffffffffffffffff1614159050919050565b505050565b505050565b60006112b78473ffffffffffffffffffffffffffffffffffffffff166115d8565b15611410578373ffffffffffffffffffffffffffffffffffffffff1663150b7a026112e0610b92565b8786866040518563ffffffff1660e01b8152600401611302949392919061280a565b6020604051808303816000875af192505050801561133e57506040513d601f19601f8201168201806040525081019061133b919061286b565b60015b6113c0573d806000811461136e576040519150601f19603f3d011682016040523d82523d6000602084013e611373565b606091505b5060008151036113b8576040517f08c379a00000000000000000000000000000000000000000000000000000000081526004016113af90612485565b60405180910390fd5b805181602001fd5b63150b7a0260e01b7bffffffffffffffffffffffffffffffffffffffffffffffffffffffff1916817bffffffffffffffffffffffffffffffffffffffffffffffffffffffff191614915050611415565b600190505b949350505050565b606060008203611464576040518060400160405280600181526020017f30000000000000000000000000000000000000000000000000000000000000008152509050611578565b600082905060005b6000821461149657808061147f90612898565b915050600a8261148f919061290f565b915061146c565b60008167ffffffffffffffff8111156114b2576114b1611ba0565b5b6040519080825280601f01601f1916602001820160405280156114e45781602001600182028036833780820191505090505b5090505b60008514611571576001826114fd9190612373565b9150600a8561150c9190612940565b6030611518919061221b565b60f81b81838151811061152e5761152d612971565b5b60200101907effffffffffffffffffffffffffffffffffffffffffffffffffffffffffffff1916908160001a905350600a8561156a919061290f565b94506114e8565b8093505050505b919050565b61158783836115fb565b6115946000848484611296565b6115d3576040517f08c379a00000000000000000000000000000000000000000000000000000000081526004016115ca90612485565b60405180910390fd5b505050565b6000808273ffffffffffffffffffffffffffffffffffffffff163b119050919050565b600073ffffffffffffffffffffffffffffffffffffffff168273ffffffffffffffffffffffffffffffffffffffff160361166a576040517f08c379a0000000000000000000000000000000000000000000000000000000008152600401611661906129ec565b60405180910390fd5b61167381611220565b156116b3576040517f08c379a00000000000000000000000000000000000000000000000000000000081526004016116aa90612a58565b60405180910390fd5b6116bf6000838361128c565b6001600360008473ffffffffffffffffffffffffffffffffffffffff1673ffffffffffffffffffffffffffffffffffffffff168152602001908152602001600020600082825461170f919061221b565b92505081905550816002600083815260200190815260200160002060006101000a81548173ffffffffffffffffffffffffffffffffffffffff021916908373ffffffffffffffffffffffffffffffffffffffff160217905550808273ffffffffffffffffffffffffffffffffffffffff16600073ffffffffffffffffffffffffffffffffffffffff167fddf252ad1be2c89b69c2b068fc378daa952ba7f163c4a11628f55a4df523b3ef60405160405180910390a46117d060008383611291565b5050565b6000604051905090565b600080fd5b600080fd5b60007fffffffff0000000000000000000000000000000000000000000000000000000082169050919050565b61181d816117e8565b811461182857600080fd5b50565b60008135905061183a81611814565b92915050565b600060208284031215611856576118556117de565b5b60006118648482850161182b565b91505092915050565b60008115159050919050565b6118828161186d565b82525050565b600060208201905061189d6000830184611879565b92915050565b600081519050919050565b600082825260208201905092915050565b60005b838110156118dd5780820151818401526020810190506118c2565b60008484015250505050565b6000601f19601f8301169050919050565b6000611905826118a3565b61190f81856118ae565b935061191f8185602086016118bf565b611928816118e9565b840191505092915050565b6000602082019050818103600083015261194d81846118fa565b905092915050565b6000819050919050565b61196881611955565b811461197357600080fd5b50565b6000813590506119858161195f565b92915050565b6000602082840312156119a1576119a06117de565b5b60006119af84828501611976565b91505092915050565b600073ffffffffffffffffffffffffffffffffffffffff82169050919050565b60006119e3826119b8565b9050919050565b6119f3816119d8565b82525050565b6000602082019050611a0e60008301846119ea565b92915050565b611a1d816119d8565b8114611a2857600080fd5b50565b600081359050611a3a81611a14565b92915050565b60008060408385031215611a5757611a566117de565b5b6000611a6585828601611a2b565b9250506020611a7685828601611976565b9150509250929050565b600080600060608486031215611a9957611a986117de565b5b6000611aa786828701611a2b565b9350506020611ab886828701611a2b565b9250506040611ac986828701611976565b9150509250925092565b600060208284031215611ae957611ae86117de565b5b6000611af784828501611a2b565b91505092915050565b611b0981611955565b82525050565b6000602082019050611b246000830184611b00565b92915050565b611b338161186d565b8114611b3e57600080fd5b50565b600081359050611b5081611b2a565b92915050565b60008060408385031215611b6d57611b6c6117de565b5b6000611b7b85828601611a2b565b9250506020611b8c85828601611b41565b9150509250929050565b600080fd5b600080fd5b7f4e487b7100000000000000000000000000000000000000000000000000000000600052604160045260246000fd5b611bd8826118e9565b810181811067ffffffffffffffff82111715611bf757611bf6611ba0565b5b80604052505050565b6000611c0a6117d4565b9050611c168282611bcf565b919050565b600067ffffffffffffffff821115611c3657611c35611ba0565b5b611c3f826118e9565b9050602081019050919050565b82818337600083830152505050565b6000611c6e611c6984611c1b565b611c00565b905082815260208101848484011115611c8a57611c89611b9b565b5b611c95848285611c4c565b509392505050565b600082601f830112611cb257611cb1611b96565b5b8135611cc2848260208601611c5b565b91505092915050565b60008060008060808587031215611ce557611ce46117de565b5b6000611cf387828801611a2b565b9450506020611d0487828801611a2b565b9350506040611d1587828801611976565b925050606085013567ffffffffffffffff811115611d3657611d356117e3565b5b611d4287828801611c9d565b91505092959194509250565b600067ffffffffffffffff821115611d6957611d68611ba0565b5b611d72826118e9565b9050602081019050919050565b6000611d92611d8d84611d4e565b611c00565b905082815260208101848484011115611dae57611dad611b9b565b5b611db9848285611c4c565b509392505050565b600082601f830112611dd657611dd5611b96565b5b8135611de6848260208601611d7f565b91505092915050565b600060208284031215611e0557611e046117de565b5b600082013567ffffffffffffffff811115611e2357611e226117e3565b5b611e2f84828501611dc1565b91505092915050565b60008060408385031215611e4f57611e4e6117de565b5b6000611e5d85828601611a2b565b9250506020611e6e85828601611a2b565b9150509250929050565b7f4e487b7100000000000000000000000000000000000000000000000000000000600052602260045260246000fd5b60006002820490506001821680611ebf57607f821691505b602082108103611ed257611ed1611e78565b5b50919050565b7f4552433732313a20617070726f76616c20746f2063757272656e74206f776e6560008201527f7200000000000000000000000000000000000000000000000000000000000000602082015250565b6000611f346021836118ae565b9150611f3f82611ed8565b604082019050919050565b60006020820190508181036000830152611f6381611f27565b9050919050565b7f4552433732313a20617070726f76652063616c6c6572206973206e6f7420746f60008201527f6b656e206f776e6572206e6f7220617070726f76656420666f7220616c6c0000602082015250565b6000611fc6603e836118ae565b9150611fd182611f6a565b604082019050919050565b60006020820190508181036000830152611ff581611fb9565b9050919050565b7f4552433732313a2063616c6c6572206973206e6f7420746f6b656e206f776e6560008201527f72206e6f7220617070726f766564000000000000000000000000000000000000602082015250565b6000612058602e836118ae565b915061206382611ffc565b604082019050919050565b600060208201905081810360008301526120878161204b565b9050919050565b7f4552433732313a20696e76616c696420746f6b656e2049440000000000000000600082015250565b60006120c46018836118ae565b91506120cf8261208e565b602082019050919050565b600060208201905081810360008301526120f3816120b7565b9050919050565b7f4552433732313a2061646472657373207a65726f206973206e6f74206120766160008201527f6c6964206f776e65720000000000000000000000000000000000000000000000602082015250565b60006121566029836118ae565b9150612161826120fa565b604082019050919050565b6000602082019050818103600083015261218581612149565b9050919050565b600081905092915050565b60006121a2826118a3565b6121ac818561218c565b93506121bc8185602086016118bf565b80840191505092915050565b60006121d48285612197565b91506121e08284612197565b91508190509392505050565b7f4e487b7100000000000000000000000000000000000000000000000000000000600052601160045260246000fd5b600061222682611955565b915061223183611955565b9250828201905080821115612249576122486121ec565b5b92915050565b7f4552433732313a207472616e736665722066726f6d20696e636f72726563742060008201527f6f776e6572000000000000000000000000000000000000000000000000000000602082015250565b60006122ab6025836118ae565b91506122b68261224f565b604082019050919050565b600060208201905081810360008301526122da8161229e565b9050919050565b7f4552433732313a207472616e7366657220746f20746865207a65726f2061646460008201527f7265737300000000000000000000000000000000000000000000000000000000602082015250565b600061233d6024836118ae565b9150612348826122e1565b604082019050919050565b6000602082019050818103600083015261236c81612330565b9050919050565b600061237e82611955565b915061238983611955565b92508282039050818111156123a1576123a06121ec565b5b92915050565b7f4552433732313a20617070726f766520746f2063616c6c657200000000000000600082015250565b60006123dd6019836118ae565b91506123e8826123a7565b602082019050919050565b6000602082019050818103600083015261240c816123d0565b9050919050565b7f4552433732313a207472616e7366657220746f206e6f6e20455243373231526560008201527f63656976657220696d706c656d656e7465720000000000000000000000000000602082015250565b600061246f6032836118ae565b915061247a82612413565b604082019050919050565b6000602082019050818103600083015261249e81612462565b9050919050565b7f45524337323155524953746f726167653a2055524920736574206f66206e6f6e60008201527f6578697374656e7420746f6b656e000000000000000000000000000000000000602082015250565b6000612501602e836118ae565b915061250c826124a5565b604082019050919050565b60006020820190508181036000830152612530816124f4565b9050919050565b60008190508160005260206000209050919050565b60006020601f8301049050919050565b600082821b905092915050565b6000600883026125997fffffffffffffffffffffffffffffffffffffffffffffffffffffffffffffffff8261255c565b6125a3868361255c565b95508019841693508086168417925050509392505050565b6000819050919050565b60006125e06125db6125d684611955565b6125bb565b611955565b9050919050565b6000819050919050565b6125fa836125c5565b61260e612606826125e7565b848454612569565b825550505050565b600090565b612623612616565b61262e8184846125f1565b505050565b5b818110156126525761264760008261261b565b600181019050612634565b5050565b601f8211156126975761266881612537565b6126718461254c565b81016020851015612680578190505b61269461268c8561254c565b830182612633565b50505b505050565b600082821c905092915050565b60006126ba6000198460080261269c565b1980831691505092915050565b60006126d383836126a9565b9150826002028217905092915050565b6126ec826118a3565b67ffffffffffffffff81111561270557612704611ba0565b5b61270f8254611ea7565b61271a828285612656565b600060209050601f83116001811461274d576000841561273b578287015190505b61274585826126c7565b8655506127ad565b601f19841661275b86612537565b60005b828110156127835784890151825560018201915060208501945060208101905061275e565b868310156127a0578489015161279c601f8916826126a9565b8355505b6001600288020188555050505b505050505050565b600081519050919050565b600082825260208201905092915050565b60006127dc826127b5565b6127e681856127c0565b93506127f68185602086016118bf565b6127ff816118e9565b840191505092915050565b600060808201905061281f60008301876119ea565b61282c60208301866119ea565b6128396040830185611b00565b818103606083015261284b81846127d1565b905095945050505050565b60008151905061286581611814565b92915050565b600060208284031215612881576128806117de565b5b600061288f84828501612856565b91505092915050565b60006128a382611955565b91507fffffffffffffffffffffffffffffffffffffffffffffffffffffffffffffffff82036128d5576128d46121ec565b5b600182019050919050565b7f4e487b7100000000000000000000000000000000000000000000000000000000600052601260045260246000fd5b600061291a82611955565b915061292583611955565b925082612935576129346128e0565b5b828204905092915050565b600061294b82611955565b915061295683611955565b925082612966576129656128e0565b5b828206905092915050565b7f4e487b7100000000000000000000000000000000000000000000000000000000600052603260045260246000fd5b7f4552433732313a206d696e7420746f20746865207a65726f2061646472657373600082015250565b60006129d66020836118ae565b91506129e1826129a0565b602082019050919050565b60006020820190508181036000830152612a05816129c9565b9050919050565b7f4552433732313a20746f6b656e20616c7265616479206d696e74656400000000600082015250565b6000612a42601c836118ae565b9150612a4d82612a0c565b602082019050919050565b60006020820190508181036000830152612a7181612a35565b905091905056fea264697066735822122078c6378e8303449ee34b102b92c47101e2ac6e6d431f85b6a7f2bc56776e84b064736f6c63430008110033",
  "linkReferences": {},
  "deployedLinkReferences": {}
}